{
	"contracts/1_PurchaseAgreement.sol": {
		"PurchaseAgreement": {
			"abi": [
				{
					"inputs": [],
					"stateMutability": "payable",
					"type": "constructor"
				},
				{
					"inputs": [],
					"name": "InvalidState",
					"type": "error"
				},
				{
					"inputs": [],
					"name": "OnlyBuyer",
					"type": "error"
				},
				{
					"inputs": [],
					"name": "OnlySeller",
					"type": "error"
				},
				{
					"inputs": [],
					"name": "abort",
					"outputs": [],
					"stateMutability": "nonpayable",
					"type": "function"
				},
				{
					"inputs": [],
					"name": "buyer",
					"outputs": [
						{
							"internalType": "address payable",
							"name": "",
							"type": "address"
						}
					],
					"stateMutability": "view",
					"type": "function"
				},
				{
					"inputs": [],
					"name": "confirmPurchase",
					"outputs": [],
					"stateMutability": "payable",
					"type": "function"
				},
				{
					"inputs": [],
					"name": "confirmReceived",
					"outputs": [],
					"stateMutability": "nonpayable",
					"type": "function"
				},
				{
					"inputs": [],
					"name": "paySeller",
					"outputs": [],
					"stateMutability": "nonpayable",
					"type": "function"
				},
				{
					"inputs": [],
					"name": "seller",
					"outputs": [
						{
							"internalType": "address payable",
							"name": "",
							"type": "address"
						}
					],
					"stateMutability": "view",
					"type": "function"
				},
				{
					"inputs": [],
					"name": "state",
					"outputs": [
						{
							"internalType": "enum PurchaseAgreement.State",
							"name": "",
							"type": "uint8"
						}
					],
					"stateMutability": "view",
					"type": "function"
				},
				{
					"inputs": [],
					"name": "value",
					"outputs": [
						{
							"internalType": "uint256",
							"name": "",
							"type": "uint256"
						}
					],
					"stateMutability": "view",
					"type": "function"
				}
			],
			"devdoc": {
				"kind": "dev",
				"methods": {},
				"version": 1
			},
			"evm": {
				"assembly": "    /* \"contracts/1_PurchaseAgreement.sol\":58:1637  contract PurchaseAgreement{... */\n  mstore(0x40, 0x80)\n    /* \"contracts/1_PurchaseAgreement.sol\":311:321  msg.sender */\n  caller\n    /* \"contracts/1_PurchaseAgreement.sol\":294:300  seller */\n  0x01\n  0x00\n    /* \"contracts/1_PurchaseAgreement.sol\":294:322  seller = payable(msg.sender) */\n  0x0100\n  exp\n  dup2\n  sload\n  dup2\n  0xffffffffffffffffffffffffffffffffffffffff\n  mul\n  not\n  and\n  swap1\n  dup4\n  0xffffffffffffffffffffffffffffffffffffffff\n  and\n  mul\n  or\n  swap1\n  sstore\n  pop\n    /* \"contracts/1_PurchaseAgreement.sol\":352:353  2 */\n  0x02\n    /* \"contracts/1_PurchaseAgreement.sol\":340:349  msg.value */\n  callvalue\n    /* \"contracts/1_PurchaseAgreement.sol\":340:353  msg.value / 2 */\n  tag_3\n  swap2\n  swap1\n  tag_4\n  jump\t// in\ntag_3:\n    /* \"contracts/1_PurchaseAgreement.sol\":332:337  value */\n  0x00\n    /* \"contracts/1_PurchaseAgreement.sol\":332:353  value = msg.value / 2 */\n  dup2\n  swap1\n  sstore\n  pop\n    /* \"contracts/1_PurchaseAgreement.sol\":58:1637  contract PurchaseAgreement{... */\n  jump(tag_5)\n    /* \"#utility.yul\":7:84   */\ntag_6:\n    /* \"#utility.yul\":44:51   */\n  0x00\n    /* \"#utility.yul\":73:78   */\n  dup2\n    /* \"#utility.yul\":62:78   */\n  swap1\n  pop\n    /* \"#utility.yul\":7:84   */\n  swap2\n  swap1\n  pop\n  jump\t// out\n    /* \"#utility.yul\":90:270   */\ntag_7:\n    /* \"#utility.yul\":138:215   */\n  0x4e487b7100000000000000000000000000000000000000000000000000000000\n    /* \"#utility.yul\":135:136   */\n  0x00\n    /* \"#utility.yul\":128:216   */\n  mstore\n    /* \"#utility.yul\":235:239   */\n  0x12\n    /* \"#utility.yul\":232:233   */\n  0x04\n    /* \"#utility.yul\":225:240   */\n  mstore\n    /* \"#utility.yul\":259:263   */\n  0x24\n    /* \"#utility.yul\":256:257   */\n  0x00\n    /* \"#utility.yul\":249:264   */\n  revert\n    /* \"#utility.yul\":462:647   */\ntag_4:\n    /* \"#utility.yul\":502:503   */\n  0x00\n    /* \"#utility.yul\":519:539   */\n  tag_14\n    /* \"#utility.yul\":537:538   */\n  dup3\n    /* \"#utility.yul\":519:539   */\n  tag_6\n  jump\t// in\ntag_14:\n    /* \"#utility.yul\":514:539   */\n  swap2\n  pop\n    /* \"#utility.yul\":553:573   */\n  tag_15\n    /* \"#utility.yul\":571:572   */\n  dup4\n    /* \"#utility.yul\":553:573   */\n  tag_6\n  jump\t// in\ntag_15:\n    /* \"#utility.yul\":548:573   */\n  swap3\n  pop\n    /* \"#utility.yul\":592:593   */\n  dup3\n    /* \"#utility.yul\":582:617   */\n  tag_16\n  jumpi\n    /* \"#utility.yul\":597:615   */\n  tag_17\n  tag_7\n  jump\t// in\ntag_17:\n    /* \"#utility.yul\":582:617   */\ntag_16:\n    /* \"#utility.yul\":639:640   */\n  dup3\n    /* \"#utility.yul\":636:637   */\n  dup3\n    /* \"#utility.yul\":632:641   */\n  div\n    /* \"#utility.yul\":627:641   */\n  swap1\n  pop\n    /* \"#utility.yul\":462:647   */\n  swap3\n  swap2\n  pop\n  pop\n  jump\t// out\n    /* \"contracts/1_PurchaseAgreement.sol\":58:1637  contract PurchaseAgreement{... */\ntag_5:\n  dataSize(sub_0)\n  dup1\n  dataOffset(sub_0)\n  0x00\n  codecopy\n  0x00\n  return\nstop\n\nsub_0: assembly {\n        /* \"contracts/1_PurchaseAgreement.sol\":58:1637  contract PurchaseAgreement{... */\n      mstore(0x40, 0x80)\n      jumpi(tag_1, lt(calldatasize, 0x04))\n      shr(0xe0, calldataload(0x00))\n      dup1\n      0x73fac6f0\n      gt\n      tag_10\n      jumpi\n      dup1\n      0x73fac6f0\n      eq\n      tag_6\n      jumpi\n      dup1\n      0xa0c97bce\n      eq\n      tag_7\n      jumpi\n      dup1\n      0xc19d93fb\n      eq\n      tag_8\n      jumpi\n      dup1\n      0xd6960697\n      eq\n      tag_9\n      jumpi\n      jump(tag_1)\n    tag_10:\n      dup1\n      0x08551a53\n      eq\n      tag_2\n      jumpi\n      dup1\n      0x35a063b4\n      eq\n      tag_3\n      jumpi\n      dup1\n      0x3fa4f245\n      eq\n      tag_4\n      jumpi\n      dup1\n      0x7150d8ae\n      eq\n      tag_5\n      jumpi\n    tag_1:\n      0x00\n      dup1\n      revert\n        /* \"contracts/1_PurchaseAgreement.sol\":113:142  address payable public seller */\n    tag_2:\n      callvalue\n      dup1\n      iszero\n      tag_11\n      jumpi\n      0x00\n      dup1\n      revert\n    tag_11:\n      pop\n      tag_12\n      tag_13\n      jump\t// in\n    tag_12:\n      mload(0x40)\n      tag_14\n      swap2\n      swap1\n      tag_15\n      jump\t// in\n    tag_14:\n      mload(0x40)\n      dup1\n      swap2\n      sub\n      swap1\n      return\n        /* \"contracts/1_PurchaseAgreement.sol\":1481:1635  function abort() external onlySeller inState(State.Created){... */\n    tag_3:\n      callvalue\n      dup1\n      iszero\n      tag_16\n      jumpi\n      0x00\n      dup1\n      revert\n    tag_16:\n      pop\n      tag_17\n      tag_18\n      jump\t// in\n    tag_17:\n      stop\n        /* \"contracts/1_PurchaseAgreement.sol\":90:107  uint public value */\n    tag_4:\n      callvalue\n      dup1\n      iszero\n      tag_19\n      jumpi\n      0x00\n      dup1\n      revert\n    tag_19:\n      pop\n      tag_20\n      tag_21\n      jump\t// in\n    tag_20:\n      mload(0x40)\n      tag_22\n      swap2\n      swap1\n      tag_23\n      jump\t// in\n    tag_22:\n      mload(0x40)\n      dup1\n      swap2\n      sub\n      swap1\n      return\n        /* \"contracts/1_PurchaseAgreement.sol\":148:176  address payable public buyer */\n    tag_5:\n      callvalue\n      dup1\n      iszero\n      tag_24\n      jumpi\n      0x00\n      dup1\n      revert\n    tag_24:\n      pop\n      tag_25\n      tag_26\n      jump\t// in\n    tag_25:\n      mload(0x40)\n      tag_27\n      swap2\n      swap1\n      tag_15\n      jump\t// in\n    tag_27:\n      mload(0x40)\n      dup1\n      swap2\n      sub\n      swap1\n      return\n        /* \"contracts/1_PurchaseAgreement.sol\":1187:1333  function confirmReceived() external onlyBuyer inState(State.Locked) {... */\n    tag_6:\n      callvalue\n      dup1\n      iszero\n      tag_28\n      jumpi\n      0x00\n      dup1\n      revert\n    tag_28:\n      pop\n      tag_29\n      tag_30\n      jump\t// in\n    tag_29:\n      stop\n        /* \"contracts/1_PurchaseAgreement.sol\":1339:1475  function paySeller() external  onlySeller inState(State.Release){... */\n    tag_7:\n      callvalue\n      dup1\n      iszero\n      tag_31\n      jumpi\n      0x00\n      dup1\n      revert\n    tag_31:\n      pop\n      tag_32\n      tag_33\n      jump\t// in\n    tag_32:\n      stop\n        /* \"contracts/1_PurchaseAgreement.sol\":236:254  State public state */\n    tag_8:\n      callvalue\n      dup1\n      iszero\n      tag_34\n      jumpi\n      0x00\n      dup1\n      revert\n    tag_34:\n      pop\n      tag_35\n      tag_36\n      jump\t// in\n    tag_35:\n      mload(0x40)\n      tag_37\n      swap2\n      swap1\n      tag_38\n      jump\t// in\n    tag_37:\n      mload(0x40)\n      dup1\n      swap2\n      sub\n      swap1\n      return\n        /* \"contracts/1_PurchaseAgreement.sol\":957:1181  function confirmPurchase() external inState(State.Created) payable {... */\n    tag_9:\n      tag_39\n      tag_40\n      jump\t// in\n    tag_39:\n      stop\n        /* \"contracts/1_PurchaseAgreement.sol\":113:142  address payable public seller */\n    tag_13:\n      0x01\n      0x00\n      swap1\n      sload\n      swap1\n      0x0100\n      exp\n      swap1\n      div\n      0xffffffffffffffffffffffffffffffffffffffff\n      and\n      dup2\n      jump\t// out\n        /* \"contracts/1_PurchaseAgreement.sol\":1481:1635  function abort() external onlySeller inState(State.Created){... */\n    tag_18:\n        /* \"contracts/1_PurchaseAgreement.sol\":883:889  seller */\n      0x01\n      0x00\n      swap1\n      sload\n      swap1\n      0x0100\n      exp\n      swap1\n      div\n      0xffffffffffffffffffffffffffffffffffffffff\n      and\n        /* \"contracts/1_PurchaseAgreement.sol\":869:889  msg.sender != seller */\n      0xffffffffffffffffffffffffffffffffffffffff\n      and\n        /* \"contracts/1_PurchaseAgreement.sol\":869:879  msg.sender */\n      caller\n        /* \"contracts/1_PurchaseAgreement.sol\":869:889  msg.sender != seller */\n      0xffffffffffffffffffffffffffffffffffffffff\n      and\n      eq\n        /* \"contracts/1_PurchaseAgreement.sol\":866:934  if(msg.sender != seller){... */\n      tag_42\n      jumpi\n        /* \"contracts/1_PurchaseAgreement.sol\":911:923  OnlySeller() */\n      mload(0x40)\n      0x85d1f72600000000000000000000000000000000000000000000000000000000\n      dup2\n      mstore\n      0x04\n      add\n      mload(0x40)\n      dup1\n      swap2\n      sub\n      swap1\n      revert\n        /* \"contracts/1_PurchaseAgreement.sol\":866:934  if(msg.sender != seller){... */\n    tag_42:\n        /* \"contracts/1_PurchaseAgreement.sol\":1526:1539  State.Created */\n      0x00\n        /* \"contracts/1_PurchaseAgreement.sol\":639:645  _state */\n      dup1\n        /* \"contracts/1_PurchaseAgreement.sol\":630:645  state != _state */\n      0x03\n      dup2\n      gt\n      iszero\n      tag_44\n      jumpi\n      tag_45\n      tag_46\n      jump\t// in\n    tag_45:\n    tag_44:\n        /* \"contracts/1_PurchaseAgreement.sol\":630:635  state */\n      0x02\n      0x14\n      swap1\n      sload\n      swap1\n      0x0100\n      exp\n      swap1\n      div\n      0xff\n      and\n        /* \"contracts/1_PurchaseAgreement.sol\":630:645  state != _state */\n      0x03\n      dup2\n      gt\n      iszero\n      tag_47\n      jumpi\n      tag_48\n      tag_46\n      jump\t// in\n    tag_48:\n    tag_47:\n      eq\n        /* \"contracts/1_PurchaseAgreement.sol\":627:692  if(state != _state){... */\n      tag_49\n      jumpi\n        /* \"contracts/1_PurchaseAgreement.sol\":667:681  InvalidState() */\n      mload(0x40)\n      0xbaf3f0f700000000000000000000000000000000000000000000000000000000\n      dup2\n      mstore\n      0x04\n      add\n      mload(0x40)\n      dup1\n      swap2\n      sub\n      swap1\n      revert\n        /* \"contracts/1_PurchaseAgreement.sol\":627:692  if(state != _state){... */\n    tag_49:\n        /* \"contracts/1_PurchaseAgreement.sol\":1562:1576  State.Inacitve */\n      0x03\n        /* \"contracts/1_PurchaseAgreement.sol\":1554:1559  state */\n      0x02\n      0x14\n        /* \"contracts/1_PurchaseAgreement.sol\":1554:1576  state = State.Inacitve */\n      0x0100\n      exp\n      dup2\n      sload\n      dup2\n      0xff\n      mul\n      not\n      and\n      swap1\n      dup4\n      0x03\n      dup2\n      gt\n      iszero\n      tag_51\n      jumpi\n      tag_52\n      tag_46\n      jump\t// in\n    tag_52:\n    tag_51:\n      mul\n      or\n      swap1\n      sstore\n      pop\n        /* \"contracts/1_PurchaseAgreement.sol\":1590:1596  seller */\n      0x01\n      0x00\n      swap1\n      sload\n      swap1\n      0x0100\n      exp\n      swap1\n      div\n      0xffffffffffffffffffffffffffffffffffffffff\n      and\n        /* \"contracts/1_PurchaseAgreement.sol\":1590:1605  seller.transfer */\n      0xffffffffffffffffffffffffffffffffffffffff\n      and\n        /* \"contracts/1_PurchaseAgreement.sol\":1590:1628  seller.transfer(address(this).balance) */\n      0x08fc\n        /* \"contracts/1_PurchaseAgreement.sol\":1606:1627  address(this).balance */\n      selfbalance\n        /* \"contracts/1_PurchaseAgreement.sol\":1590:1628  seller.transfer(address(this).balance) */\n      swap1\n      dup2\n      iszero\n      mul\n      swap1\n      mload(0x40)\n      0x00\n      mload(0x40)\n      dup1\n      dup4\n      sub\n      dup2\n      dup6\n      dup9\n      dup9\n      call\n      swap4\n      pop\n      pop\n      pop\n      pop\n      iszero\n      dup1\n      iszero\n      tag_54\n      jumpi\n      returndatasize\n      0x00\n      dup1\n      returndatacopy\n      revert(0x00, returndatasize)\n    tag_54:\n      pop\n        /* \"contracts/1_PurchaseAgreement.sol\":943:944  _ */\n      pop\n        /* \"contracts/1_PurchaseAgreement.sol\":1481:1635  function abort() external onlySeller inState(State.Created){... */\n      jump\t// out\n        /* \"contracts/1_PurchaseAgreement.sol\":90:107  uint public value */\n    tag_21:\n      sload(0x00)\n      dup2\n      jump\t// out\n        /* \"contracts/1_PurchaseAgreement.sol\":148:176  address payable public buyer */\n    tag_26:\n      0x02\n      0x00\n      swap1\n      sload\n      swap1\n      0x0100\n      exp\n      swap1\n      div\n      0xffffffffffffffffffffffffffffffffffffffff\n      and\n      dup2\n      jump\t// out\n        /* \"contracts/1_PurchaseAgreement.sol\":1187:1333  function confirmReceived() external onlyBuyer inState(State.Locked) {... */\n    tag_30:\n        /* \"contracts/1_PurchaseAgreement.sol\":762:767  buyer */\n      0x02\n      0x00\n      swap1\n      sload\n      swap1\n      0x0100\n      exp\n      swap1\n      div\n      0xffffffffffffffffffffffffffffffffffffffff\n      and\n        /* \"contracts/1_PurchaseAgreement.sol\":748:767  msg.sender != buyer */\n      0xffffffffffffffffffffffffffffffffffffffff\n      and\n        /* \"contracts/1_PurchaseAgreement.sol\":748:758  msg.sender */\n      caller\n        /* \"contracts/1_PurchaseAgreement.sol\":748:767  msg.sender != buyer */\n      0xffffffffffffffffffffffffffffffffffffffff\n      and\n      eq\n        /* \"contracts/1_PurchaseAgreement.sol\":745:811  if(msg.sender != buyer){... */\n      tag_56\n      jumpi\n        /* \"contracts/1_PurchaseAgreement.sol\":789:800  OnlyBuyer() */\n      mload(0x40)\n      0x86efbb5500000000000000000000000000000000000000000000000000000000\n      dup2\n      mstore\n      0x04\n      add\n      mload(0x40)\n      dup1\n      swap2\n      sub\n      swap1\n      revert\n        /* \"contracts/1_PurchaseAgreement.sol\":745:811  if(msg.sender != buyer){... */\n    tag_56:\n        /* \"contracts/1_PurchaseAgreement.sol\":1241:1253  State.Locked */\n      0x01\n        /* \"contracts/1_PurchaseAgreement.sol\":639:645  _state */\n      dup1\n        /* \"contracts/1_PurchaseAgreement.sol\":630:645  state != _state */\n      0x03\n      dup2\n      gt\n      iszero\n      tag_58\n      jumpi\n      tag_59\n      tag_46\n      jump\t// in\n    tag_59:\n    tag_58:\n        /* \"contracts/1_PurchaseAgreement.sol\":630:635  state */\n      0x02\n      0x14\n      swap1\n      sload\n      swap1\n      0x0100\n      exp\n      swap1\n      div\n      0xff\n      and\n        /* \"contracts/1_PurchaseAgreement.sol\":630:645  state != _state */\n      0x03\n      dup2\n      gt\n      iszero\n      tag_60\n      jumpi\n      tag_61\n      tag_46\n      jump\t// in\n    tag_61:\n    tag_60:\n      eq\n        /* \"contracts/1_PurchaseAgreement.sol\":627:692  if(state != _state){... */\n      tag_62\n      jumpi\n        /* \"contracts/1_PurchaseAgreement.sol\":667:681  InvalidState() */\n      mload(0x40)\n      0xbaf3f0f700000000000000000000000000000000000000000000000000000000\n      dup2\n      mstore\n      0x04\n      add\n      mload(0x40)\n      dup1\n      swap2\n      sub\n      swap1\n      revert\n        /* \"contracts/1_PurchaseAgreement.sol\":627:692  if(state != _state){... */\n    tag_62:\n        /* \"contracts/1_PurchaseAgreement.sol\":1273:1286  State.Release */\n      0x02\n        /* \"contracts/1_PurchaseAgreement.sol\":1265:1270  state */\n      dup1\n      0x14\n        /* \"contracts/1_PurchaseAgreement.sol\":1265:1286  state = State.Release */\n      0x0100\n      exp\n      dup2\n      sload\n      dup2\n      0xff\n      mul\n      not\n      and\n      swap1\n      dup4\n      0x03\n      dup2\n      gt\n      iszero\n      tag_64\n      jumpi\n      tag_65\n      tag_46\n      jump\t// in\n    tag_65:\n    tag_64:\n      mul\n      or\n      swap1\n      sstore\n      pop\n        /* \"contracts/1_PurchaseAgreement.sol\":1296:1301  buyer */\n      0x02\n      0x00\n      swap1\n      sload\n      swap1\n      0x0100\n      exp\n      swap1\n      div\n      0xffffffffffffffffffffffffffffffffffffffff\n      and\n        /* \"contracts/1_PurchaseAgreement.sol\":1296:1310  buyer.transfer */\n      0xffffffffffffffffffffffffffffffffffffffff\n      and\n        /* \"contracts/1_PurchaseAgreement.sol\":1296:1317  buyer.transfer(value) */\n      0x08fc\n        /* \"contracts/1_PurchaseAgreement.sol\":1311:1316  value */\n      sload(0x00)\n        /* \"contracts/1_PurchaseAgreement.sol\":1296:1317  buyer.transfer(value) */\n      swap1\n      dup2\n      iszero\n      mul\n      swap1\n      mload(0x40)\n      0x00\n      mload(0x40)\n      dup1\n      dup4\n      sub\n      dup2\n      dup6\n      dup9\n      dup9\n      call\n      swap4\n      pop\n      pop\n      pop\n      pop\n      iszero\n      dup1\n      iszero\n      tag_67\n      jumpi\n      returndatasize\n      0x00\n      dup1\n      returndatacopy\n      revert(0x00, returndatasize)\n    tag_67:\n      pop\n        /* \"contracts/1_PurchaseAgreement.sol\":820:821  _ */\n      pop\n        /* \"contracts/1_PurchaseAgreement.sol\":1187:1333  function confirmReceived() external onlyBuyer inState(State.Locked) {... */\n      jump\t// out\n        /* \"contracts/1_PurchaseAgreement.sol\":1339:1475  function paySeller() external  onlySeller inState(State.Release){... */\n    tag_33:\n        /* \"contracts/1_PurchaseAgreement.sol\":883:889  seller */\n      0x01\n      0x00\n      swap1\n      sload\n      swap1\n      0x0100\n      exp\n      swap1\n      div\n      0xffffffffffffffffffffffffffffffffffffffff\n      and\n        /* \"contracts/1_PurchaseAgreement.sol\":869:889  msg.sender != seller */\n      0xffffffffffffffffffffffffffffffffffffffff\n      and\n        /* \"contracts/1_PurchaseAgreement.sol\":869:879  msg.sender */\n      caller\n        /* \"contracts/1_PurchaseAgreement.sol\":869:889  msg.sender != seller */\n      0xffffffffffffffffffffffffffffffffffffffff\n      and\n      eq\n        /* \"contracts/1_PurchaseAgreement.sol\":866:934  if(msg.sender != seller){... */\n      tag_69\n      jumpi\n        /* \"contracts/1_PurchaseAgreement.sol\":911:923  OnlySeller() */\n      mload(0x40)\n      0x85d1f72600000000000000000000000000000000000000000000000000000000\n      dup2\n      mstore\n      0x04\n      add\n      mload(0x40)\n      dup1\n      swap2\n      sub\n      swap1\n      revert\n        /* \"contracts/1_PurchaseAgreement.sol\":866:934  if(msg.sender != seller){... */\n    tag_69:\n        /* \"contracts/1_PurchaseAgreement.sol\":1389:1402  State.Release */\n      0x02\n        /* \"contracts/1_PurchaseAgreement.sol\":639:645  _state */\n      dup1\n        /* \"contracts/1_PurchaseAgreement.sol\":630:645  state != _state */\n      0x03\n      dup2\n      gt\n      iszero\n      tag_71\n      jumpi\n      tag_72\n      tag_46\n      jump\t// in\n    tag_72:\n    tag_71:\n        /* \"contracts/1_PurchaseAgreement.sol\":630:635  state */\n      0x02\n      0x14\n      swap1\n      sload\n      swap1\n      0x0100\n      exp\n      swap1\n      div\n      0xff\n      and\n        /* \"contracts/1_PurchaseAgreement.sol\":630:645  state != _state */\n      0x03\n      dup2\n      gt\n      iszero\n      tag_73\n      jumpi\n      tag_74\n      tag_46\n      jump\t// in\n    tag_74:\n    tag_73:\n      eq\n        /* \"contracts/1_PurchaseAgreement.sol\":627:692  if(state != _state){... */\n      tag_75\n      jumpi\n        /* \"contracts/1_PurchaseAgreement.sol\":667:681  InvalidState() */\n      mload(0x40)\n      0xbaf3f0f700000000000000000000000000000000000000000000000000000000\n      dup2\n      mstore\n      0x04\n      add\n      mload(0x40)\n      dup1\n      swap2\n      sub\n      swap1\n      revert\n        /* \"contracts/1_PurchaseAgreement.sol\":627:692  if(state != _state){... */\n    tag_75:\n        /* \"contracts/1_PurchaseAgreement.sol\":1419:1433  State.Inacitve */\n      0x03\n        /* \"contracts/1_PurchaseAgreement.sol\":1411:1416  state */\n      0x02\n      0x14\n        /* \"contracts/1_PurchaseAgreement.sol\":1411:1433  state = State.Inacitve */\n      0x0100\n      exp\n      dup2\n      sload\n      dup2\n      0xff\n      mul\n      not\n      and\n      swap1\n      dup4\n      0x03\n      dup2\n      gt\n      iszero\n      tag_77\n      jumpi\n      tag_78\n      tag_46\n      jump\t// in\n    tag_78:\n    tag_77:\n      mul\n      or\n      swap1\n      sstore\n      pop\n        /* \"contracts/1_PurchaseAgreement.sol\":1441:1447  seller */\n      0x01\n      0x00\n      swap1\n      sload\n      swap1\n      0x0100\n      exp\n      swap1\n      div\n      0xffffffffffffffffffffffffffffffffffffffff\n      and\n        /* \"contracts/1_PurchaseAgreement.sol\":1441:1456  seller.transfer */\n      0xffffffffffffffffffffffffffffffffffffffff\n      and\n        /* \"contracts/1_PurchaseAgreement.sol\":1441:1467  seller.transfer(3 * value) */\n      0x08fc\n        /* \"contracts/1_PurchaseAgreement.sol\":1461:1466  value */\n      sload(0x00)\n        /* \"contracts/1_PurchaseAgreement.sol\":1457:1458  3 */\n      0x03\n        /* \"contracts/1_PurchaseAgreement.sol\":1457:1466  3 * value */\n      tag_79\n      swap2\n      swap1\n      tag_80\n      jump\t// in\n    tag_79:\n        /* \"contracts/1_PurchaseAgreement.sol\":1441:1467  seller.transfer(3 * value) */\n      swap1\n      dup2\n      iszero\n      mul\n      swap1\n      mload(0x40)\n      0x00\n      mload(0x40)\n      dup1\n      dup4\n      sub\n      dup2\n      dup6\n      dup9\n      dup9\n      call\n      swap4\n      pop\n      pop\n      pop\n      pop\n      iszero\n      dup1\n      iszero\n      tag_82\n      jumpi\n      returndatasize\n      0x00\n      dup1\n      returndatacopy\n      revert(0x00, returndatasize)\n    tag_82:\n      pop\n        /* \"contracts/1_PurchaseAgreement.sol\":943:944  _ */\n      pop\n        /* \"contracts/1_PurchaseAgreement.sol\":1339:1475  function paySeller() external  onlySeller inState(State.Release){... */\n      jump\t// out\n        /* \"contracts/1_PurchaseAgreement.sol\":236:254  State public state */\n    tag_36:\n      0x02\n      0x14\n      swap1\n      sload\n      swap1\n      0x0100\n      exp\n      swap1\n      div\n      0xff\n      and\n      dup2\n      jump\t// out\n        /* \"contracts/1_PurchaseAgreement.sol\":957:1181  function confirmPurchase() external inState(State.Created) payable {... */\n    tag_40:\n        /* \"contracts/1_PurchaseAgreement.sol\":1001:1014  State.Created */\n      0x00\n        /* \"contracts/1_PurchaseAgreement.sol\":639:645  _state */\n      dup1\n        /* \"contracts/1_PurchaseAgreement.sol\":630:645  state != _state */\n      0x03\n      dup2\n      gt\n      iszero\n      tag_84\n      jumpi\n      tag_85\n      tag_46\n      jump\t// in\n    tag_85:\n    tag_84:\n        /* \"contracts/1_PurchaseAgreement.sol\":630:635  state */\n      0x02\n      0x14\n      swap1\n      sload\n      swap1\n      0x0100\n      exp\n      swap1\n      div\n      0xff\n      and\n        /* \"contracts/1_PurchaseAgreement.sol\":630:645  state != _state */\n      0x03\n      dup2\n      gt\n      iszero\n      tag_86\n      jumpi\n      tag_87\n      tag_46\n      jump\t// in\n    tag_87:\n    tag_86:\n      eq\n        /* \"contracts/1_PurchaseAgreement.sol\":627:692  if(state != _state){... */\n      tag_88\n      jumpi\n        /* \"contracts/1_PurchaseAgreement.sol\":667:681  InvalidState() */\n      mload(0x40)\n      0xbaf3f0f700000000000000000000000000000000000000000000000000000000\n      dup2\n      mstore\n      0x04\n      add\n      mload(0x40)\n      dup1\n      swap2\n      sub\n      swap1\n      revert\n        /* \"contracts/1_PurchaseAgreement.sol\":627:692  if(state != _state){... */\n    tag_88:\n        /* \"contracts/1_PurchaseAgreement.sol\":1055:1060  value */\n      sload(0x00)\n        /* \"contracts/1_PurchaseAgreement.sol\":1053:1054  2 */\n      0x02\n        /* \"contracts/1_PurchaseAgreement.sol\":1053:1060  2*value */\n      tag_90\n      swap2\n      swap1\n      tag_80\n      jump\t// in\n    tag_90:\n        /* \"contracts/1_PurchaseAgreement.sol\":1042:1051  msg.value */\n      callvalue\n        /* \"contracts/1_PurchaseAgreement.sol\":1042:1060  msg.value==2*value */\n      eq\n        /* \"contracts/1_PurchaseAgreement.sol\":1034:1106  require(msg.value==2*value,\"Please send 2x times  the purchase amount.\") */\n      tag_91\n      jumpi\n      mload(0x40)\n      0x08c379a000000000000000000000000000000000000000000000000000000000\n      dup2\n      mstore\n      0x04\n      add\n      tag_92\n      swap1\n      tag_93\n      jump\t// in\n    tag_92:\n      mload(0x40)\n      dup1\n      swap2\n      sub\n      swap1\n      revert\n    tag_91:\n        /* \"contracts/1_PurchaseAgreement.sol\":1133:1143  msg.sender */\n      caller\n        /* \"contracts/1_PurchaseAgreement.sol\":1116:1121  buyer */\n      0x02\n      0x00\n        /* \"contracts/1_PurchaseAgreement.sol\":1116:1144  buyer =  payable(msg.sender) */\n      0x0100\n      exp\n      dup2\n      sload\n      dup2\n      0xffffffffffffffffffffffffffffffffffffffff\n      mul\n      not\n      and\n      swap1\n      dup4\n      0xffffffffffffffffffffffffffffffffffffffff\n      and\n      mul\n      or\n      swap1\n      sstore\n      pop\n        /* \"contracts/1_PurchaseAgreement.sol\":1162:1174  State.Locked */\n      0x01\n        /* \"contracts/1_PurchaseAgreement.sol\":1154:1159  state */\n      0x02\n      0x14\n        /* \"contracts/1_PurchaseAgreement.sol\":1154:1174  state = State.Locked */\n      0x0100\n      exp\n      dup2\n      sload\n      dup2\n      0xff\n      mul\n      not\n      and\n      swap1\n      dup4\n      0x03\n      dup2\n      gt\n      iszero\n      tag_94\n      jumpi\n      tag_95\n      tag_46\n      jump\t// in\n    tag_95:\n    tag_94:\n      mul\n      or\n      swap1\n      sstore\n      pop\n        /* \"contracts/1_PurchaseAgreement.sol\":957:1181  function confirmPurchase() external inState(State.Created) payable {... */\n      pop\n      jump\t// out\n        /* \"#utility.yul\":7:133   */\n    tag_96:\n        /* \"#utility.yul\":44:51   */\n      0x00\n        /* \"#utility.yul\":84:126   */\n      0xffffffffffffffffffffffffffffffffffffffff\n        /* \"#utility.yul\":77:82   */\n      dup3\n        /* \"#utility.yul\":73:127   */\n      and\n        /* \"#utility.yul\":62:127   */\n      swap1\n      pop\n        /* \"#utility.yul\":7:133   */\n      swap2\n      swap1\n      pop\n      jump\t// out\n        /* \"#utility.yul\":139:243   */\n    tag_97:\n        /* \"#utility.yul\":184:191   */\n      0x00\n        /* \"#utility.yul\":213:237   */\n      tag_112\n        /* \"#utility.yul\":231:236   */\n      dup3\n        /* \"#utility.yul\":213:237   */\n      tag_96\n      jump\t// in\n    tag_112:\n        /* \"#utility.yul\":202:237   */\n      swap1\n      pop\n        /* \"#utility.yul\":139:243   */\n      swap2\n      swap1\n      pop\n      jump\t// out\n        /* \"#utility.yul\":249:391   */\n    tag_98:\n        /* \"#utility.yul\":352:384   */\n      tag_114\n        /* \"#utility.yul\":378:383   */\n      dup2\n        /* \"#utility.yul\":352:384   */\n      tag_97\n      jump\t// in\n    tag_114:\n        /* \"#utility.yul\":347:350   */\n      dup3\n        /* \"#utility.yul\":340:385   */\n      mstore\n        /* \"#utility.yul\":249:391   */\n      pop\n      pop\n      jump\t// out\n        /* \"#utility.yul\":397:651   */\n    tag_15:\n        /* \"#utility.yul\":506:510   */\n      0x00\n        /* \"#utility.yul\":544:546   */\n      0x20\n        /* \"#utility.yul\":533:542   */\n      dup3\n        /* \"#utility.yul\":529:547   */\n      add\n        /* \"#utility.yul\":521:547   */\n      swap1\n      pop\n        /* \"#utility.yul\":557:644   */\n      tag_116\n        /* \"#utility.yul\":641:642   */\n      0x00\n        /* \"#utility.yul\":630:639   */\n      dup4\n        /* \"#utility.yul\":626:643   */\n      add\n        /* \"#utility.yul\":617:623   */\n      dup5\n        /* \"#utility.yul\":557:644   */\n      tag_98\n      jump\t// in\n    tag_116:\n        /* \"#utility.yul\":397:651   */\n      swap3\n      swap2\n      pop\n      pop\n      jump\t// out\n        /* \"#utility.yul\":657:734   */\n    tag_99:\n        /* \"#utility.yul\":694:701   */\n      0x00\n        /* \"#utility.yul\":723:728   */\n      dup2\n        /* \"#utility.yul\":712:728   */\n      swap1\n      pop\n        /* \"#utility.yul\":657:734   */\n      swap2\n      swap1\n      pop\n      jump\t// out\n        /* \"#utility.yul\":740:858   */\n    tag_100:\n        /* \"#utility.yul\":827:851   */\n      tag_119\n        /* \"#utility.yul\":845:850   */\n      dup2\n        /* \"#utility.yul\":827:851   */\n      tag_99\n      jump\t// in\n    tag_119:\n        /* \"#utility.yul\":822:825   */\n      dup3\n        /* \"#utility.yul\":815:852   */\n      mstore\n        /* \"#utility.yul\":740:858   */\n      pop\n      pop\n      jump\t// out\n        /* \"#utility.yul\":864:1086   */\n    tag_23:\n        /* \"#utility.yul\":957:961   */\n      0x00\n        /* \"#utility.yul\":995:997   */\n      0x20\n        /* \"#utility.yul\":984:993   */\n      dup3\n        /* \"#utility.yul\":980:998   */\n      add\n        /* \"#utility.yul\":972:998   */\n      swap1\n      pop\n        /* \"#utility.yul\":1008:1079   */\n      tag_121\n        /* \"#utility.yul\":1076:1077   */\n      0x00\n        /* \"#utility.yul\":1065:1074   */\n      dup4\n        /* \"#utility.yul\":1061:1078   */\n      add\n        /* \"#utility.yul\":1052:1058   */\n      dup5\n        /* \"#utility.yul\":1008:1079   */\n      tag_100\n      jump\t// in\n    tag_121:\n        /* \"#utility.yul\":864:1086   */\n      swap3\n      swap2\n      pop\n      pop\n      jump\t// out\n        /* \"#utility.yul\":1092:1272   */\n    tag_46:\n        /* \"#utility.yul\":1140:1217   */\n      0x4e487b7100000000000000000000000000000000000000000000000000000000\n        /* \"#utility.yul\":1137:1138   */\n      0x00\n        /* \"#utility.yul\":1130:1218   */\n      mstore\n        /* \"#utility.yul\":1237:1241   */\n      0x21\n        /* \"#utility.yul\":1234:1235   */\n      0x04\n        /* \"#utility.yul\":1227:1242   */\n      mstore\n        /* \"#utility.yul\":1261:1265   */\n      0x24\n        /* \"#utility.yul\":1258:1259   */\n      0x00\n        /* \"#utility.yul\":1251:1266   */\n      revert\n        /* \"#utility.yul\":1278:1391   */\n    tag_101:\n        /* \"#utility.yul\":1359:1360   */\n      0x04\n        /* \"#utility.yul\":1352:1357   */\n      dup2\n        /* \"#utility.yul\":1349:1361   */\n      lt\n        /* \"#utility.yul\":1339:1385   */\n      tag_124\n      jumpi\n        /* \"#utility.yul\":1365:1383   */\n      tag_125\n      tag_46\n      jump\t// in\n    tag_125:\n        /* \"#utility.yul\":1339:1385   */\n    tag_124:\n        /* \"#utility.yul\":1278:1391   */\n      pop\n      jump\t// out\n        /* \"#utility.yul\":1397:1524   */\n    tag_102:\n        /* \"#utility.yul\":1442:1449   */\n      0x00\n        /* \"#utility.yul\":1471:1476   */\n      dup2\n        /* \"#utility.yul\":1460:1476   */\n      swap1\n      pop\n        /* \"#utility.yul\":1477:1518   */\n      tag_127\n        /* \"#utility.yul\":1512:1517   */\n      dup3\n        /* \"#utility.yul\":1477:1518   */\n      tag_101\n      jump\t// in\n    tag_127:\n        /* \"#utility.yul\":1397:1524   */\n      swap2\n      swap1\n      pop\n      jump\t// out\n        /* \"#utility.yul\":1530:1657   */\n    tag_103:\n        /* \"#utility.yul\":1586:1595   */\n      0x00\n        /* \"#utility.yul\":1619:1651   */\n      tag_129\n        /* \"#utility.yul\":1645:1650   */\n      dup3\n        /* \"#utility.yul\":1619:1651   */\n      tag_102\n      jump\t// in\n    tag_129:\n        /* \"#utility.yul\":1606:1651   */\n      swap1\n      pop\n        /* \"#utility.yul\":1530:1657   */\n      swap2\n      swap1\n      pop\n      jump\t// out\n        /* \"#utility.yul\":1663:1806   */\n    tag_104:\n        /* \"#utility.yul\":1756:1799   */\n      tag_131\n        /* \"#utility.yul\":1793:1798   */\n      dup2\n        /* \"#utility.yul\":1756:1799   */\n      tag_103\n      jump\t// in\n    tag_131:\n        /* \"#utility.yul\":1751:1754   */\n      dup3\n        /* \"#utility.yul\":1744:1800   */\n      mstore\n        /* \"#utility.yul\":1663:1806   */\n      pop\n      pop\n      jump\t// out\n        /* \"#utility.yul\":1812:2046   */\n    tag_38:\n        /* \"#utility.yul\":1911:1915   */\n      0x00\n        /* \"#utility.yul\":1949:1951   */\n      0x20\n        /* \"#utility.yul\":1938:1947   */\n      dup3\n        /* \"#utility.yul\":1934:1952   */\n      add\n        /* \"#utility.yul\":1926:1952   */\n      swap1\n      pop\n        /* \"#utility.yul\":1962:2039   */\n      tag_133\n        /* \"#utility.yul\":2036:2037   */\n      0x00\n        /* \"#utility.yul\":2025:2034   */\n      dup4\n        /* \"#utility.yul\":2021:2038   */\n      add\n        /* \"#utility.yul\":2012:2018   */\n      dup5\n        /* \"#utility.yul\":1962:2039   */\n      tag_104\n      jump\t// in\n    tag_133:\n        /* \"#utility.yul\":1812:2046   */\n      swap3\n      swap2\n      pop\n      pop\n      jump\t// out\n        /* \"#utility.yul\":2052:2232   */\n    tag_105:\n        /* \"#utility.yul\":2100:2177   */\n      0x4e487b7100000000000000000000000000000000000000000000000000000000\n        /* \"#utility.yul\":2097:2098   */\n      0x00\n        /* \"#utility.yul\":2090:2178   */\n      mstore\n        /* \"#utility.yul\":2197:2201   */\n      0x11\n        /* \"#utility.yul\":2194:2195   */\n      0x04\n        /* \"#utility.yul\":2187:2202   */\n      mstore\n        /* \"#utility.yul\":2221:2225   */\n      0x24\n        /* \"#utility.yul\":2218:2219   */\n      0x00\n        /* \"#utility.yul\":2211:2226   */\n      revert\n        /* \"#utility.yul\":2238:2648   */\n    tag_80:\n        /* \"#utility.yul\":2278:2285   */\n      0x00\n        /* \"#utility.yul\":2301:2321   */\n      tag_136\n        /* \"#utility.yul\":2319:2320   */\n      dup3\n        /* \"#utility.yul\":2301:2321   */\n      tag_99\n      jump\t// in\n    tag_136:\n        /* \"#utility.yul\":2296:2321   */\n      swap2\n      pop\n        /* \"#utility.yul\":2335:2355   */\n      tag_137\n        /* \"#utility.yul\":2353:2354   */\n      dup4\n        /* \"#utility.yul\":2335:2355   */\n      tag_99\n      jump\t// in\n    tag_137:\n        /* \"#utility.yul\":2330:2355   */\n      swap3\n      pop\n        /* \"#utility.yul\":2390:2391   */\n      dup3\n        /* \"#utility.yul\":2387:2388   */\n      dup3\n        /* \"#utility.yul\":2383:2392   */\n      mul\n        /* \"#utility.yul\":2412:2442   */\n      tag_138\n        /* \"#utility.yul\":2430:2441   */\n      dup2\n        /* \"#utility.yul\":2412:2442   */\n      tag_99\n      jump\t// in\n    tag_138:\n        /* \"#utility.yul\":2401:2442   */\n      swap2\n      pop\n        /* \"#utility.yul\":2591:2592   */\n      dup3\n        /* \"#utility.yul\":2582:2589   */\n      dup3\n        /* \"#utility.yul\":2578:2593   */\n      div\n        /* \"#utility.yul\":2575:2576   */\n      dup5\n        /* \"#utility.yul\":2572:2594   */\n      eq\n        /* \"#utility.yul\":2552:2553   */\n      dup4\n        /* \"#utility.yul\":2545:2554   */\n      iszero\n        /* \"#utility.yul\":2525:2608   */\n      or\n        /* \"#utility.yul\":2502:2641   */\n      tag_139\n      jumpi\n        /* \"#utility.yul\":2621:2639   */\n      tag_140\n      tag_105\n      jump\t// in\n    tag_140:\n        /* \"#utility.yul\":2502:2641   */\n    tag_139:\n        /* \"#utility.yul\":2286:2648   */\n      pop\n        /* \"#utility.yul\":2238:2648   */\n      swap3\n      swap2\n      pop\n      pop\n      jump\t// out\n        /* \"#utility.yul\":2654:2823   */\n    tag_106:\n        /* \"#utility.yul\":2738:2749   */\n      0x00\n        /* \"#utility.yul\":2772:2778   */\n      dup3\n        /* \"#utility.yul\":2767:2770   */\n      dup3\n        /* \"#utility.yul\":2760:2779   */\n      mstore\n        /* \"#utility.yul\":2812:2816   */\n      0x20\n        /* \"#utility.yul\":2807:2810   */\n      dup3\n        /* \"#utility.yul\":2803:2817   */\n      add\n        /* \"#utility.yul\":2788:2817   */\n      swap1\n      pop\n        /* \"#utility.yul\":2654:2823   */\n      swap3\n      swap2\n      pop\n      pop\n      jump\t// out\n        /* \"#utility.yul\":2829:3058   */\n    tag_107:\n        /* \"#utility.yul\":2969:3003   */\n      0x506c656173652073656e642032782074696d6573202074686520707572636861\n        /* \"#utility.yul\":2965:2966   */\n      0x00\n        /* \"#utility.yul\":2957:2963   */\n      dup3\n        /* \"#utility.yul\":2953:2967   */\n      add\n        /* \"#utility.yul\":2946:3004   */\n      mstore\n        /* \"#utility.yul\":3038:3050   */\n      0x736520616d6f756e742e00000000000000000000000000000000000000000000\n        /* \"#utility.yul\":3033:3035   */\n      0x20\n        /* \"#utility.yul\":3025:3031   */\n      dup3\n        /* \"#utility.yul\":3021:3036   */\n      add\n        /* \"#utility.yul\":3014:3051   */\n      mstore\n        /* \"#utility.yul\":2829:3058   */\n      pop\n      jump\t// out\n        /* \"#utility.yul\":3064:3430   */\n    tag_108:\n        /* \"#utility.yul\":3206:3209   */\n      0x00\n        /* \"#utility.yul\":3227:3294   */\n      tag_144\n        /* \"#utility.yul\":3291:3293   */\n      0x2a\n        /* \"#utility.yul\":3286:3289   */\n      dup4\n        /* \"#utility.yul\":3227:3294   */\n      tag_106\n      jump\t// in\n    tag_144:\n        /* \"#utility.yul\":3220:3294   */\n      swap2\n      pop\n        /* \"#utility.yul\":3303:3396   */\n      tag_145\n        /* \"#utility.yul\":3392:3395   */\n      dup3\n        /* \"#utility.yul\":3303:3396   */\n      tag_107\n      jump\t// in\n    tag_145:\n        /* \"#utility.yul\":3421:3423   */\n      0x40\n        /* \"#utility.yul\":3416:3419   */\n      dup3\n        /* \"#utility.yul\":3412:3424   */\n      add\n        /* \"#utility.yul\":3405:3424   */\n      swap1\n      pop\n        /* \"#utility.yul\":3064:3430   */\n      swap2\n      swap1\n      pop\n      jump\t// out\n        /* \"#utility.yul\":3436:3855   */\n    tag_93:\n        /* \"#utility.yul\":3602:3606   */\n      0x00\n        /* \"#utility.yul\":3640:3642   */\n      0x20\n        /* \"#utility.yul\":3629:3638   */\n      dup3\n        /* \"#utility.yul\":3625:3643   */\n      add\n        /* \"#utility.yul\":3617:3643   */\n      swap1\n      pop\n        /* \"#utility.yul\":3689:3698   */\n      dup2\n        /* \"#utility.yul\":3683:3687   */\n      dup2\n        /* \"#utility.yul\":3679:3699   */\n      sub\n        /* \"#utility.yul\":3675:3676   */\n      0x00\n        /* \"#utility.yul\":3664:3673   */\n      dup4\n        /* \"#utility.yul\":3660:3677   */\n      add\n        /* \"#utility.yul\":3653:3700   */\n      mstore\n        /* \"#utility.yul\":3717:3848   */\n      tag_147\n        /* \"#utility.yul\":3843:3847   */\n      dup2\n        /* \"#utility.yul\":3717:3848   */\n      tag_108\n      jump\t// in\n    tag_147:\n        /* \"#utility.yul\":3709:3848   */\n      swap1\n      pop\n        /* \"#utility.yul\":3436:3855   */\n      swap2\n      swap1\n      pop\n      jump\t// out\n\n    auxdata: 0xa264697066735822122058ed525952e8a425169e783cabf61fa10955c68f51f5d7b728fa90f0629f9fb864736f6c63430008140033\n}\n",
				"bytecode": {
					"linkReferences": {},
					"object": "60806040523360015f6101000a81548173ffffffffffffffffffffffffffffffffffffffff021916908373ffffffffffffffffffffffffffffffffffffffff1602179055506002346100519190610091565b5f819055506100c1565b5f819050919050565b7f4e487b71000000000000000000000000000000000000000000000000000000005f52601260045260245ffd5b5f61009b8261005b565b91506100a68361005b565b9250826100b6576100b5610064565b5b828204905092915050565b6109f6806100ce5f395ff3fe60806040526004361061007a575f3560e01c806373fac6f01161004d57806373fac6f014610112578063a0c97bce14610128578063c19d93fb1461013e578063d6960697146101685761007a565b806308551a531461007e57806335a063b4146100a85780633fa4f245146100be5780637150d8ae146100e8575b5f80fd5b348015610089575f80fd5b50610092610172565b60405161009f91906107de565b60405180910390f35b3480156100b3575f80fd5b506100bc610197565b005b3480156100c9575f80fd5b506100d261031d565b6040516100df919061080f565b60405180910390f35b3480156100f3575f80fd5b506100fc610322565b60405161010991906107de565b60405180910390f35b34801561011d575f80fd5b50610126610347565b005b348015610133575f80fd5b5061013c6104ce565b005b348015610149575f80fd5b50610152610662565b60405161015f919061089b565b60405180910390f35b610170610675565b005b60015f9054906101000a900473ffffffffffffffffffffffffffffffffffffffff1681565b60015f9054906101000a900473ffffffffffffffffffffffffffffffffffffffff1673ffffffffffffffffffffffffffffffffffffffff163373ffffffffffffffffffffffffffffffffffffffff161461021d576040517f85d1f72600000000000000000000000000000000000000000000000000000000815260040160405180910390fd5b5f80600381111561023157610230610828565b5b600260149054906101000a900460ff16600381111561025357610252610828565b5b1461028a576040517fbaf3f0f700000000000000000000000000000000000000000000000000000000815260040160405180910390fd5b6003600260146101000a81548160ff021916908360038111156102b0576102af610828565b5b021790555060015f9054906101000a900473ffffffffffffffffffffffffffffffffffffffff1673ffffffffffffffffffffffffffffffffffffffff166108fc4790811502906040515f60405180830381858888f19350505050158015610319573d5f803e3d5ffd5b5050565b5f5481565b60025f9054906101000a900473ffffffffffffffffffffffffffffffffffffffff1681565b60025f9054906101000a900473ffffffffffffffffffffffffffffffffffffffff1673ffffffffffffffffffffffffffffffffffffffff163373ffffffffffffffffffffffffffffffffffffffff16146103cd576040517f86efbb5500000000000000000000000000000000000000000000000000000000815260040160405180910390fd5b60018060038111156103e2576103e1610828565b5b600260149054906101000a900460ff16600381111561040457610403610828565b5b1461043b576040517fbaf3f0f700000000000000000000000000000000000000000000000000000000815260040160405180910390fd5b60028060146101000a81548160ff021916908360038111156104605761045f610828565b5b021790555060025f9054906101000a900473ffffffffffffffffffffffffffffffffffffffff1673ffffffffffffffffffffffffffffffffffffffff166108fc5f5490811502906040515f60405180830381858888f193505050501580156104ca573d5f803e3d5ffd5b5050565b60015f9054906101000a900473ffffffffffffffffffffffffffffffffffffffff1673ffffffffffffffffffffffffffffffffffffffff163373ffffffffffffffffffffffffffffffffffffffff1614610554576040517f85d1f72600000000000000000000000000000000000000000000000000000000815260040160405180910390fd5b600280600381111561056957610568610828565b5b600260149054906101000a900460ff16600381111561058b5761058a610828565b5b146105c2576040517fbaf3f0f700000000000000000000000000000000000000000000000000000000815260040160405180910390fd5b6003600260146101000a81548160ff021916908360038111156105e8576105e7610828565b5b021790555060015f9054906101000a900473ffffffffffffffffffffffffffffffffffffffff1673ffffffffffffffffffffffffffffffffffffffff166108fc5f54600361063691906108e1565b90811502906040515f60405180830381858888f1935050505015801561065e573d5f803e3d5ffd5b5050565b600260149054906101000a900460ff1681565b5f80600381111561068957610688610828565b5b600260149054906101000a900460ff1660038111156106ab576106aa610828565b5b146106e2576040517fbaf3f0f700000000000000000000000000000000000000000000000000000000815260040160405180910390fd5b5f5460026106f091906108e1565b3414610731576040517f08c379a0000000000000000000000000000000000000000000000000000000008152600401610728906109a2565b60405180910390fd5b3360025f6101000a81548173ffffffffffffffffffffffffffffffffffffffff021916908373ffffffffffffffffffffffffffffffffffffffff1602179055506001600260146101000a81548160ff0219169083600381111561079757610796610828565b5b021790555050565b5f73ffffffffffffffffffffffffffffffffffffffff82169050919050565b5f6107c88261079f565b9050919050565b6107d8816107be565b82525050565b5f6020820190506107f15f8301846107cf565b92915050565b5f819050919050565b610809816107f7565b82525050565b5f6020820190506108225f830184610800565b92915050565b7f4e487b71000000000000000000000000000000000000000000000000000000005f52602160045260245ffd5b6004811061086657610865610828565b5b50565b5f81905061087682610855565b919050565b5f61088582610869565b9050919050565b6108958161087b565b82525050565b5f6020820190506108ae5f83018461088c565b92915050565b7f4e487b71000000000000000000000000000000000000000000000000000000005f52601160045260245ffd5b5f6108eb826107f7565b91506108f6836107f7565b9250828202610904816107f7565b9150828204841483151761091b5761091a6108b4565b5b5092915050565b5f82825260208201905092915050565b7f506c656173652073656e642032782074696d65732020746865207075726368615f8201527f736520616d6f756e742e00000000000000000000000000000000000000000000602082015250565b5f61098c602a83610922565b915061099782610932565b604082019050919050565b5f6020820190508181035f8301526109b981610980565b905091905056fea264697066735822122058ed525952e8a425169e783cabf61fa10955c68f51f5d7b728fa90f0629f9fb864736f6c63430008140033",
					"opcodes": "PUSH1 0x80 PUSH1 0x40 MSTORE CALLER PUSH1 0x1 PUSH0 PUSH2 0x100 EXP DUP2 SLOAD DUP2 PUSH20 0xFFFFFFFFFFFFFFFFFFFFFFFFFFFFFFFFFFFFFFFF MUL NOT AND SWAP1 DUP4 PUSH20 0xFFFFFFFFFFFFFFFFFFFFFFFFFFFFFFFFFFFFFFFF AND MUL OR SWAP1 SSTORE POP PUSH1 0x2 CALLVALUE PUSH2 0x51 SWAP2 SWAP1 PUSH2 0x91 JUMP JUMPDEST PUSH0 DUP2 SWAP1 SSTORE POP PUSH2 0xC1 JUMP JUMPDEST PUSH0 DUP2 SWAP1 POP SWAP2 SWAP1 POP JUMP JUMPDEST PUSH32 0x4E487B7100000000000000000000000000000000000000000000000000000000 PUSH0 MSTORE PUSH1 0x12 PUSH1 0x4 MSTORE PUSH1 0x24 PUSH0 REVERT JUMPDEST PUSH0 PUSH2 0x9B DUP3 PUSH2 0x5B JUMP JUMPDEST SWAP2 POP PUSH2 0xA6 DUP4 PUSH2 0x5B JUMP JUMPDEST SWAP3 POP DUP3 PUSH2 0xB6 JUMPI PUSH2 0xB5 PUSH2 0x64 JUMP JUMPDEST JUMPDEST DUP3 DUP3 DIV SWAP1 POP SWAP3 SWAP2 POP POP JUMP JUMPDEST PUSH2 0x9F6 DUP1 PUSH2 0xCE PUSH0 CODECOPY PUSH0 RETURN INVALID PUSH1 0x80 PUSH1 0x40 MSTORE PUSH1 0x4 CALLDATASIZE LT PUSH2 0x7A JUMPI PUSH0 CALLDATALOAD PUSH1 0xE0 SHR DUP1 PUSH4 0x73FAC6F0 GT PUSH2 0x4D JUMPI DUP1 PUSH4 0x73FAC6F0 EQ PUSH2 0x112 JUMPI DUP1 PUSH4 0xA0C97BCE EQ PUSH2 0x128 JUMPI DUP1 PUSH4 0xC19D93FB EQ PUSH2 0x13E JUMPI DUP1 PUSH4 0xD6960697 EQ PUSH2 0x168 JUMPI PUSH2 0x7A JUMP JUMPDEST DUP1 PUSH4 0x8551A53 EQ PUSH2 0x7E JUMPI DUP1 PUSH4 0x35A063B4 EQ PUSH2 0xA8 JUMPI DUP1 PUSH4 0x3FA4F245 EQ PUSH2 0xBE JUMPI DUP1 PUSH4 0x7150D8AE EQ PUSH2 0xE8 JUMPI JUMPDEST PUSH0 DUP1 REVERT JUMPDEST CALLVALUE DUP1 ISZERO PUSH2 0x89 JUMPI PUSH0 DUP1 REVERT JUMPDEST POP PUSH2 0x92 PUSH2 0x172 JUMP JUMPDEST PUSH1 0x40 MLOAD PUSH2 0x9F SWAP2 SWAP1 PUSH2 0x7DE JUMP JUMPDEST PUSH1 0x40 MLOAD DUP1 SWAP2 SUB SWAP1 RETURN JUMPDEST CALLVALUE DUP1 ISZERO PUSH2 0xB3 JUMPI PUSH0 DUP1 REVERT JUMPDEST POP PUSH2 0xBC PUSH2 0x197 JUMP JUMPDEST STOP JUMPDEST CALLVALUE DUP1 ISZERO PUSH2 0xC9 JUMPI PUSH0 DUP1 REVERT JUMPDEST POP PUSH2 0xD2 PUSH2 0x31D JUMP JUMPDEST PUSH1 0x40 MLOAD PUSH2 0xDF SWAP2 SWAP1 PUSH2 0x80F JUMP JUMPDEST PUSH1 0x40 MLOAD DUP1 SWAP2 SUB SWAP1 RETURN JUMPDEST CALLVALUE DUP1 ISZERO PUSH2 0xF3 JUMPI PUSH0 DUP1 REVERT JUMPDEST POP PUSH2 0xFC PUSH2 0x322 JUMP JUMPDEST PUSH1 0x40 MLOAD PUSH2 0x109 SWAP2 SWAP1 PUSH2 0x7DE JUMP JUMPDEST PUSH1 0x40 MLOAD DUP1 SWAP2 SUB SWAP1 RETURN JUMPDEST CALLVALUE DUP1 ISZERO PUSH2 0x11D JUMPI PUSH0 DUP1 REVERT JUMPDEST POP PUSH2 0x126 PUSH2 0x347 JUMP JUMPDEST STOP JUMPDEST CALLVALUE DUP1 ISZERO PUSH2 0x133 JUMPI PUSH0 DUP1 REVERT JUMPDEST POP PUSH2 0x13C PUSH2 0x4CE JUMP JUMPDEST STOP JUMPDEST CALLVALUE DUP1 ISZERO PUSH2 0x149 JUMPI PUSH0 DUP1 REVERT JUMPDEST POP PUSH2 0x152 PUSH2 0x662 JUMP JUMPDEST PUSH1 0x40 MLOAD PUSH2 0x15F SWAP2 SWAP1 PUSH2 0x89B JUMP JUMPDEST PUSH1 0x40 MLOAD DUP1 SWAP2 SUB SWAP1 RETURN JUMPDEST PUSH2 0x170 PUSH2 0x675 JUMP JUMPDEST STOP JUMPDEST PUSH1 0x1 PUSH0 SWAP1 SLOAD SWAP1 PUSH2 0x100 EXP SWAP1 DIV PUSH20 0xFFFFFFFFFFFFFFFFFFFFFFFFFFFFFFFFFFFFFFFF AND DUP2 JUMP JUMPDEST PUSH1 0x1 PUSH0 SWAP1 SLOAD SWAP1 PUSH2 0x100 EXP SWAP1 DIV PUSH20 0xFFFFFFFFFFFFFFFFFFFFFFFFFFFFFFFFFFFFFFFF AND PUSH20 0xFFFFFFFFFFFFFFFFFFFFFFFFFFFFFFFFFFFFFFFF AND CALLER PUSH20 0xFFFFFFFFFFFFFFFFFFFFFFFFFFFFFFFFFFFFFFFF AND EQ PUSH2 0x21D JUMPI PUSH1 0x40 MLOAD PUSH32 0x85D1F72600000000000000000000000000000000000000000000000000000000 DUP2 MSTORE PUSH1 0x4 ADD PUSH1 0x40 MLOAD DUP1 SWAP2 SUB SWAP1 REVERT JUMPDEST PUSH0 DUP1 PUSH1 0x3 DUP2 GT ISZERO PUSH2 0x231 JUMPI PUSH2 0x230 PUSH2 0x828 JUMP JUMPDEST JUMPDEST PUSH1 0x2 PUSH1 0x14 SWAP1 SLOAD SWAP1 PUSH2 0x100 EXP SWAP1 DIV PUSH1 0xFF AND PUSH1 0x3 DUP2 GT ISZERO PUSH2 0x253 JUMPI PUSH2 0x252 PUSH2 0x828 JUMP JUMPDEST JUMPDEST EQ PUSH2 0x28A JUMPI PUSH1 0x40 MLOAD PUSH32 0xBAF3F0F700000000000000000000000000000000000000000000000000000000 DUP2 MSTORE PUSH1 0x4 ADD PUSH1 0x40 MLOAD DUP1 SWAP2 SUB SWAP1 REVERT JUMPDEST PUSH1 0x3 PUSH1 0x2 PUSH1 0x14 PUSH2 0x100 EXP DUP2 SLOAD DUP2 PUSH1 0xFF MUL NOT AND SWAP1 DUP4 PUSH1 0x3 DUP2 GT ISZERO PUSH2 0x2B0 JUMPI PUSH2 0x2AF PUSH2 0x828 JUMP JUMPDEST JUMPDEST MUL OR SWAP1 SSTORE POP PUSH1 0x1 PUSH0 SWAP1 SLOAD SWAP1 PUSH2 0x100 EXP SWAP1 DIV PUSH20 0xFFFFFFFFFFFFFFFFFFFFFFFFFFFFFFFFFFFFFFFF AND PUSH20 0xFFFFFFFFFFFFFFFFFFFFFFFFFFFFFFFFFFFFFFFF AND PUSH2 0x8FC SELFBALANCE SWAP1 DUP2 ISZERO MUL SWAP1 PUSH1 0x40 MLOAD PUSH0 PUSH1 0x40 MLOAD DUP1 DUP4 SUB DUP2 DUP6 DUP9 DUP9 CALL SWAP4 POP POP POP POP ISZERO DUP1 ISZERO PUSH2 0x319 JUMPI RETURNDATASIZE PUSH0 DUP1 RETURNDATACOPY RETURNDATASIZE PUSH0 REVERT JUMPDEST POP POP JUMP JUMPDEST PUSH0 SLOAD DUP2 JUMP JUMPDEST PUSH1 0x2 PUSH0 SWAP1 SLOAD SWAP1 PUSH2 0x100 EXP SWAP1 DIV PUSH20 0xFFFFFFFFFFFFFFFFFFFFFFFFFFFFFFFFFFFFFFFF AND DUP2 JUMP JUMPDEST PUSH1 0x2 PUSH0 SWAP1 SLOAD SWAP1 PUSH2 0x100 EXP SWAP1 DIV PUSH20 0xFFFFFFFFFFFFFFFFFFFFFFFFFFFFFFFFFFFFFFFF AND PUSH20 0xFFFFFFFFFFFFFFFFFFFFFFFFFFFFFFFFFFFFFFFF AND CALLER PUSH20 0xFFFFFFFFFFFFFFFFFFFFFFFFFFFFFFFFFFFFFFFF AND EQ PUSH2 0x3CD JUMPI PUSH1 0x40 MLOAD PUSH32 0x86EFBB5500000000000000000000000000000000000000000000000000000000 DUP2 MSTORE PUSH1 0x4 ADD PUSH1 0x40 MLOAD DUP1 SWAP2 SUB SWAP1 REVERT JUMPDEST PUSH1 0x1 DUP1 PUSH1 0x3 DUP2 GT ISZERO PUSH2 0x3E2 JUMPI PUSH2 0x3E1 PUSH2 0x828 JUMP JUMPDEST JUMPDEST PUSH1 0x2 PUSH1 0x14 SWAP1 SLOAD SWAP1 PUSH2 0x100 EXP SWAP1 DIV PUSH1 0xFF AND PUSH1 0x3 DUP2 GT ISZERO PUSH2 0x404 JUMPI PUSH2 0x403 PUSH2 0x828 JUMP JUMPDEST JUMPDEST EQ PUSH2 0x43B JUMPI PUSH1 0x40 MLOAD PUSH32 0xBAF3F0F700000000000000000000000000000000000000000000000000000000 DUP2 MSTORE PUSH1 0x4 ADD PUSH1 0x40 MLOAD DUP1 SWAP2 SUB SWAP1 REVERT JUMPDEST PUSH1 0x2 DUP1 PUSH1 0x14 PUSH2 0x100 EXP DUP2 SLOAD DUP2 PUSH1 0xFF MUL NOT AND SWAP1 DUP4 PUSH1 0x3 DUP2 GT ISZERO PUSH2 0x460 JUMPI PUSH2 0x45F PUSH2 0x828 JUMP JUMPDEST JUMPDEST MUL OR SWAP1 SSTORE POP PUSH1 0x2 PUSH0 SWAP1 SLOAD SWAP1 PUSH2 0x100 EXP SWAP1 DIV PUSH20 0xFFFFFFFFFFFFFFFFFFFFFFFFFFFFFFFFFFFFFFFF AND PUSH20 0xFFFFFFFFFFFFFFFFFFFFFFFFFFFFFFFFFFFFFFFF AND PUSH2 0x8FC PUSH0 SLOAD SWAP1 DUP2 ISZERO MUL SWAP1 PUSH1 0x40 MLOAD PUSH0 PUSH1 0x40 MLOAD DUP1 DUP4 SUB DUP2 DUP6 DUP9 DUP9 CALL SWAP4 POP POP POP POP ISZERO DUP1 ISZERO PUSH2 0x4CA JUMPI RETURNDATASIZE PUSH0 DUP1 RETURNDATACOPY RETURNDATASIZE PUSH0 REVERT JUMPDEST POP POP JUMP JUMPDEST PUSH1 0x1 PUSH0 SWAP1 SLOAD SWAP1 PUSH2 0x100 EXP SWAP1 DIV PUSH20 0xFFFFFFFFFFFFFFFFFFFFFFFFFFFFFFFFFFFFFFFF AND PUSH20 0xFFFFFFFFFFFFFFFFFFFFFFFFFFFFFFFFFFFFFFFF AND CALLER PUSH20 0xFFFFFFFFFFFFFFFFFFFFFFFFFFFFFFFFFFFFFFFF AND EQ PUSH2 0x554 JUMPI PUSH1 0x40 MLOAD PUSH32 0x85D1F72600000000000000000000000000000000000000000000000000000000 DUP2 MSTORE PUSH1 0x4 ADD PUSH1 0x40 MLOAD DUP1 SWAP2 SUB SWAP1 REVERT JUMPDEST PUSH1 0x2 DUP1 PUSH1 0x3 DUP2 GT ISZERO PUSH2 0x569 JUMPI PUSH2 0x568 PUSH2 0x828 JUMP JUMPDEST JUMPDEST PUSH1 0x2 PUSH1 0x14 SWAP1 SLOAD SWAP1 PUSH2 0x100 EXP SWAP1 DIV PUSH1 0xFF AND PUSH1 0x3 DUP2 GT ISZERO PUSH2 0x58B JUMPI PUSH2 0x58A PUSH2 0x828 JUMP JUMPDEST JUMPDEST EQ PUSH2 0x5C2 JUMPI PUSH1 0x40 MLOAD PUSH32 0xBAF3F0F700000000000000000000000000000000000000000000000000000000 DUP2 MSTORE PUSH1 0x4 ADD PUSH1 0x40 MLOAD DUP1 SWAP2 SUB SWAP1 REVERT JUMPDEST PUSH1 0x3 PUSH1 0x2 PUSH1 0x14 PUSH2 0x100 EXP DUP2 SLOAD DUP2 PUSH1 0xFF MUL NOT AND SWAP1 DUP4 PUSH1 0x3 DUP2 GT ISZERO PUSH2 0x5E8 JUMPI PUSH2 0x5E7 PUSH2 0x828 JUMP JUMPDEST JUMPDEST MUL OR SWAP1 SSTORE POP PUSH1 0x1 PUSH0 SWAP1 SLOAD SWAP1 PUSH2 0x100 EXP SWAP1 DIV PUSH20 0xFFFFFFFFFFFFFFFFFFFFFFFFFFFFFFFFFFFFFFFF AND PUSH20 0xFFFFFFFFFFFFFFFFFFFFFFFFFFFFFFFFFFFFFFFF AND PUSH2 0x8FC PUSH0 SLOAD PUSH1 0x3 PUSH2 0x636 SWAP2 SWAP1 PUSH2 0x8E1 JUMP JUMPDEST SWAP1 DUP2 ISZERO MUL SWAP1 PUSH1 0x40 MLOAD PUSH0 PUSH1 0x40 MLOAD DUP1 DUP4 SUB DUP2 DUP6 DUP9 DUP9 CALL SWAP4 POP POP POP POP ISZERO DUP1 ISZERO PUSH2 0x65E JUMPI RETURNDATASIZE PUSH0 DUP1 RETURNDATACOPY RETURNDATASIZE PUSH0 REVERT JUMPDEST POP POP JUMP JUMPDEST PUSH1 0x2 PUSH1 0x14 SWAP1 SLOAD SWAP1 PUSH2 0x100 EXP SWAP1 DIV PUSH1 0xFF AND DUP2 JUMP JUMPDEST PUSH0 DUP1 PUSH1 0x3 DUP2 GT ISZERO PUSH2 0x689 JUMPI PUSH2 0x688 PUSH2 0x828 JUMP JUMPDEST JUMPDEST PUSH1 0x2 PUSH1 0x14 SWAP1 SLOAD SWAP1 PUSH2 0x100 EXP SWAP1 DIV PUSH1 0xFF AND PUSH1 0x3 DUP2 GT ISZERO PUSH2 0x6AB JUMPI PUSH2 0x6AA PUSH2 0x828 JUMP JUMPDEST JUMPDEST EQ PUSH2 0x6E2 JUMPI PUSH1 0x40 MLOAD PUSH32 0xBAF3F0F700000000000000000000000000000000000000000000000000000000 DUP2 MSTORE PUSH1 0x4 ADD PUSH1 0x40 MLOAD DUP1 SWAP2 SUB SWAP1 REVERT JUMPDEST PUSH0 SLOAD PUSH1 0x2 PUSH2 0x6F0 SWAP2 SWAP1 PUSH2 0x8E1 JUMP JUMPDEST CALLVALUE EQ PUSH2 0x731 JUMPI PUSH1 0x40 MLOAD PUSH32 0x8C379A000000000000000000000000000000000000000000000000000000000 DUP2 MSTORE PUSH1 0x4 ADD PUSH2 0x728 SWAP1 PUSH2 0x9A2 JUMP JUMPDEST PUSH1 0x40 MLOAD DUP1 SWAP2 SUB SWAP1 REVERT JUMPDEST CALLER PUSH1 0x2 PUSH0 PUSH2 0x100 EXP DUP2 SLOAD DUP2 PUSH20 0xFFFFFFFFFFFFFFFFFFFFFFFFFFFFFFFFFFFFFFFF MUL NOT AND SWAP1 DUP4 PUSH20 0xFFFFFFFFFFFFFFFFFFFFFFFFFFFFFFFFFFFFFFFF AND MUL OR SWAP1 SSTORE POP PUSH1 0x1 PUSH1 0x2 PUSH1 0x14 PUSH2 0x100 EXP DUP2 SLOAD DUP2 PUSH1 0xFF MUL NOT AND SWAP1 DUP4 PUSH1 0x3 DUP2 GT ISZERO PUSH2 0x797 JUMPI PUSH2 0x796 PUSH2 0x828 JUMP JUMPDEST JUMPDEST MUL OR SWAP1 SSTORE POP POP JUMP JUMPDEST PUSH0 PUSH20 0xFFFFFFFFFFFFFFFFFFFFFFFFFFFFFFFFFFFFFFFF DUP3 AND SWAP1 POP SWAP2 SWAP1 POP JUMP JUMPDEST PUSH0 PUSH2 0x7C8 DUP3 PUSH2 0x79F JUMP JUMPDEST SWAP1 POP SWAP2 SWAP1 POP JUMP JUMPDEST PUSH2 0x7D8 DUP2 PUSH2 0x7BE JUMP JUMPDEST DUP3 MSTORE POP POP JUMP JUMPDEST PUSH0 PUSH1 0x20 DUP3 ADD SWAP1 POP PUSH2 0x7F1 PUSH0 DUP4 ADD DUP5 PUSH2 0x7CF JUMP JUMPDEST SWAP3 SWAP2 POP POP JUMP JUMPDEST PUSH0 DUP2 SWAP1 POP SWAP2 SWAP1 POP JUMP JUMPDEST PUSH2 0x809 DUP2 PUSH2 0x7F7 JUMP JUMPDEST DUP3 MSTORE POP POP JUMP JUMPDEST PUSH0 PUSH1 0x20 DUP3 ADD SWAP1 POP PUSH2 0x822 PUSH0 DUP4 ADD DUP5 PUSH2 0x800 JUMP JUMPDEST SWAP3 SWAP2 POP POP JUMP JUMPDEST PUSH32 0x4E487B7100000000000000000000000000000000000000000000000000000000 PUSH0 MSTORE PUSH1 0x21 PUSH1 0x4 MSTORE PUSH1 0x24 PUSH0 REVERT JUMPDEST PUSH1 0x4 DUP2 LT PUSH2 0x866 JUMPI PUSH2 0x865 PUSH2 0x828 JUMP JUMPDEST JUMPDEST POP JUMP JUMPDEST PUSH0 DUP2 SWAP1 POP PUSH2 0x876 DUP3 PUSH2 0x855 JUMP JUMPDEST SWAP2 SWAP1 POP JUMP JUMPDEST PUSH0 PUSH2 0x885 DUP3 PUSH2 0x869 JUMP JUMPDEST SWAP1 POP SWAP2 SWAP1 POP JUMP JUMPDEST PUSH2 0x895 DUP2 PUSH2 0x87B JUMP JUMPDEST DUP3 MSTORE POP POP JUMP JUMPDEST PUSH0 PUSH1 0x20 DUP3 ADD SWAP1 POP PUSH2 0x8AE PUSH0 DUP4 ADD DUP5 PUSH2 0x88C JUMP JUMPDEST SWAP3 SWAP2 POP POP JUMP JUMPDEST PUSH32 0x4E487B7100000000000000000000000000000000000000000000000000000000 PUSH0 MSTORE PUSH1 0x11 PUSH1 0x4 MSTORE PUSH1 0x24 PUSH0 REVERT JUMPDEST PUSH0 PUSH2 0x8EB DUP3 PUSH2 0x7F7 JUMP JUMPDEST SWAP2 POP PUSH2 0x8F6 DUP4 PUSH2 0x7F7 JUMP JUMPDEST SWAP3 POP DUP3 DUP3 MUL PUSH2 0x904 DUP2 PUSH2 0x7F7 JUMP JUMPDEST SWAP2 POP DUP3 DUP3 DIV DUP5 EQ DUP4 ISZERO OR PUSH2 0x91B JUMPI PUSH2 0x91A PUSH2 0x8B4 JUMP JUMPDEST JUMPDEST POP SWAP3 SWAP2 POP POP JUMP JUMPDEST PUSH0 DUP3 DUP3 MSTORE PUSH1 0x20 DUP3 ADD SWAP1 POP SWAP3 SWAP2 POP POP JUMP JUMPDEST PUSH32 0x506C656173652073656E642032782074696D6573202074686520707572636861 PUSH0 DUP3 ADD MSTORE PUSH32 0x736520616D6F756E742E00000000000000000000000000000000000000000000 PUSH1 0x20 DUP3 ADD MSTORE POP JUMP JUMPDEST PUSH0 PUSH2 0x98C PUSH1 0x2A DUP4 PUSH2 0x922 JUMP JUMPDEST SWAP2 POP PUSH2 0x997 DUP3 PUSH2 0x932 JUMP JUMPDEST PUSH1 0x40 DUP3 ADD SWAP1 POP SWAP2 SWAP1 POP JUMP JUMPDEST PUSH0 PUSH1 0x20 DUP3 ADD SWAP1 POP DUP2 DUP2 SUB PUSH0 DUP4 ADD MSTORE PUSH2 0x9B9 DUP2 PUSH2 0x980 JUMP JUMPDEST SWAP1 POP SWAP2 SWAP1 POP JUMP INVALID LOG2 PUSH5 0x6970667358 0x22 SLT KECCAK256 PC 0xED MSTORE MSIZE MSTORE 0xE8 LOG4 0x25 AND SWAP15 PUSH25 0x3CABF61FA10955C68F51F5D7B728FA90F0629F9FB864736F6C PUSH4 0x43000814 STOP CALLER "
				},
				"gasEstimates": {
					"creation": {
						"codeDepositCost": "510000",
						"executionCost": "infinite",
						"totalCost": "infinite"
					},
					"external": {
						"abort()": "infinite",
						"buyer()": "2575",
						"confirmPurchase()": "infinite",
						"confirmReceived()": "infinite",
						"paySeller()": "infinite",
						"seller()": "2509",
						"state()": "2649",
						"value()": "2469"
					}
				},
				"methodIdentifiers": {
					"abort()": "35a063b4",
					"buyer()": "7150d8ae",
					"confirmPurchase()": "d6960697",
					"confirmReceived()": "73fac6f0",
					"paySeller()": "a0c97bce",
					"seller()": "08551a53",
					"state()": "c19d93fb",
					"value()": "3fa4f245"
				}
			},
			"storageLayout": {
				"storage": [
					{
						"astId": 3,
						"contract": "contracts/1_PurchaseAgreement.sol:PurchaseAgreement",
						"label": "value",
						"offset": 0,
						"slot": "0",
						"type": "t_uint256"
					},
					{
						"astId": 5,
						"contract": "contracts/1_PurchaseAgreement.sol:PurchaseAgreement",
						"label": "seller",
						"offset": 0,
						"slot": "1",
						"type": "t_address_payable"
					},
					{
						"astId": 7,
						"contract": "contracts/1_PurchaseAgreement.sol:PurchaseAgreement",
						"label": "buyer",
						"offset": 0,
						"slot": "2",
						"type": "t_address_payable"
					},
					{
						"astId": 15,
						"contract": "contracts/1_PurchaseAgreement.sol:PurchaseAgreement",
						"label": "state",
						"offset": 20,
						"slot": "2",
						"type": "t_enum(State)12"
					}
				],
				"types": {
					"t_address_payable": {
						"encoding": "inplace",
						"label": "address payable",
						"numberOfBytes": "20"
					},
					"t_enum(State)12": {
						"encoding": "inplace",
						"label": "enum PurchaseAgreement.State",
						"numberOfBytes": "1"
					},
					"t_uint256": {
						"encoding": "inplace",
						"label": "uint256",
						"numberOfBytes": "32"
					}
				}
			},
			"userdoc": {
				"errors": {
					"InvalidState()": [
						{
							"notice": "The function cannot be called at the current state."
						}
					],
					"OnlyBuyer()": [
						{
							"notice": "Only the buyer can call this function"
						}
					],
					"OnlySeller()": [
						{
							"notice": "Only the seller can call this function"
						}
					]
				},
				"kind": "user",
				"methods": {},
				"version": 1
			}
		}
	}
}